{
  "contractName": "HTLC",
  "abi": [
    {
      "inputs": [
        {
          "internalType": "address",
          "name": "_recipient",
          "type": "address"
        },
        {
          "internalType": "address",
          "name": "_token",
          "type": "address"
        },
        {
          "internalType": "uint256",
          "name": "_amount",
          "type": "uint256"
        }
      ],
      "stateMutability": "nonpayable",
      "type": "constructor"
    },
    {
      "inputs": [],
      "name": "amount",
      "outputs": [
        {
          "internalType": "uint256",
          "name": "",
          "type": "uint256"
        }
      ],
      "stateMutability": "view",
      "type": "function",
      "constant": true
    },
    {
      "inputs": [],
      "name": "hash",
      "outputs": [
        {
          "internalType": "bytes32",
          "name": "",
          "type": "bytes32"
        }
      ],
      "stateMutability": "view",
      "type": "function",
      "constant": true
    },
    {
      "inputs": [],
      "name": "lockTime",
      "outputs": [
        {
          "internalType": "uint256",
          "name": "",
          "type": "uint256"
        }
      ],
      "stateMutability": "view",
      "type": "function",
      "constant": true
    },
    {
      "inputs": [],
      "name": "owner",
      "outputs": [
        {
          "internalType": "address",
          "name": "",
          "type": "address"
        }
      ],
      "stateMutability": "view",
      "type": "function",
      "constant": true
    },
    {
      "inputs": [],
      "name": "recipient",
      "outputs": [
        {
          "internalType": "address",
          "name": "",
          "type": "address"
        }
      ],
      "stateMutability": "view",
      "type": "function",
      "constant": true
    },
    {
      "inputs": [],
      "name": "secret",
      "outputs": [
        {
          "internalType": "string",
          "name": "",
          "type": "string"
        }
      ],
      "stateMutability": "view",
      "type": "function",
      "constant": true
    },
    {
      "inputs": [],
      "name": "startTime",
      "outputs": [
        {
          "internalType": "uint256",
          "name": "",
          "type": "uint256"
        }
      ],
      "stateMutability": "view",
      "type": "function",
      "constant": true
    },
    {
      "inputs": [],
      "name": "token",
      "outputs": [
        {
          "internalType": "contract IERC20",
          "name": "",
          "type": "address"
        }
      ],
      "stateMutability": "view",
      "type": "function",
      "constant": true
    },
    {
      "inputs": [],
      "name": "fund",
      "outputs": [],
      "stateMutability": "nonpayable",
      "type": "function"
    },
    {
      "inputs": [
        {
          "internalType": "string",
          "name": "_secret",
          "type": "string"
        }
      ],
      "name": "withdraw",
      "outputs": [],
      "stateMutability": "nonpayable",
      "type": "function"
    },
    {
      "inputs": [],
      "name": "refund",
      "outputs": [],
      "stateMutability": "nonpayable",
      "type": "function"
    }
  ],
  "bytecode": "0x60806040526127106001557f6980c7da04154324dbf91e0c6f4d993a1db27786cdaf94cca88138aa640bbf9f60035534801561003a57600080fd5b5060405161083d38038061083d833981016040819052610059916100b6565b600480546001600160a01b039485166001600160a01b03199182161790915560058054821633179055600691909155600780549290931691161790556100f1565b80516001600160a01b03811681146100b157600080fd5b919050565b6000806000606084860312156100ca578283fd5b6100d38461009a565b92506100e16020850161009a565b9150604084015190509250925092565b61073d806101006000396000f3fe608060405234801561001057600080fd5b50600436106100a95760003560e01c806378e979251161007157806378e97925146101065780638da5cb5b1461010e578063aa8c217c14610116578063b60d42881461011e578063d1efd30d14610126578063fc0c546a1461013b576100a9565b806309bd5a60146100ae5780630d668087146100cc57806331fb67c2146100d4578063590e1ae3146100e957806366d003ac146100f1575b600080fd5b6100b6610143565b6040516100c391906105c9565b60405180910390f35b6100b6610149565b6100e76100e23660046104bb565b61014f565b005b6100e7610241565b6100f96102fb565b6040516100c39190610578565b6100b661030a565b6100f9610310565b6100b661031f565b6100e7610325565b61012e61035e565b6040516100c391906105d2565b6100f96103ec565b60035481565b60015481565b60035481604051602001610163919061055c565b604051602081830303815290604052805190602001201461019f5760405162461bcd60e51b81526004016101969061063c565b60405180910390fd5b80516101b29060029060208401906103fb565b506007546004805460065460405163a9059cbb60e01b81526001600160a01b039485169463a9059cbb946101eb949091169291016105b0565b602060405180830381600087803b15801561020557600080fd5b505af1158015610219573d6000803e3d6000fd5b505050506040513d601f19601f8201168201806040525081019061023d9190610494565b5050565b6001546000546102519190610662565b421161026f5760405162461bcd60e51b815260040161019690610605565b60075460055460065460405163a9059cbb60e01b81526001600160a01b039384169363a9059cbb936102a6939116916004016105b0565b602060405180830381600087803b1580156102c057600080fd5b505af11580156102d4573d6000803e3d6000fd5b505050506040513d601f19601f820116820180604052508101906102f89190610494565b50565b6004546001600160a01b031681565b60005481565b6005546001600160a01b031681565b60065481565b426000556007546006546040516323b872dd60e01b81526001600160a01b03909216916323b872dd916102a6913391309160040161058c565b6002805461036b906106b6565b80601f0160208091040260200160405190810160405280929190818152602001828054610397906106b6565b80156103e45780601f106103b9576101008083540402835291602001916103e4565b820191906000526020600020905b8154815290600101906020018083116103c757829003601f168201915b505050505081565b6007546001600160a01b031681565b828054610407906106b6565b90600052602060002090601f016020900481019282610429576000855561046f565b82601f1061044257805160ff191683800117855561046f565b8280016001018555821561046f579182015b8281111561046f578251825591602001919060010190610454565b5061047b92915061047f565b5090565b5b8082111561047b5760008155600101610480565b6000602082840312156104a5578081fd5b815180151581146104b4578182fd5b9392505050565b600060208083850312156104cd578182fd5b823567ffffffffffffffff808211156104e4578384fd5b818501915085601f8301126104f7578384fd5b813581811115610509576105096106f1565b604051601f8201601f191681018501838111828210171561052c5761052c6106f1565b6040528181528382018501881015610542578586fd5b818585018683013790810190930193909352509392505050565b6000825161056e818460208701610686565b9190910192915050565b6001600160a01b0391909116815260200190565b6001600160a01b039384168152919092166020820152604081019190915260600190565b6001600160a01b03929092168252602082015260400190565b90815260200190565b60006020825282518060208401526105f1816040850160208701610686565b601f01601f19169190910160400192915050565b60208082526017908201527f4e6f7420726561636820746865206c6f636b2074696d65000000000000000000604082015260600190565b6020808252600c908201526b15dc9bdb99c81cd958dc995d60a21b604082015260600190565b6000821982111561068157634e487b7160e01b81526011600452602481fd5b500190565b60005b838110156106a1578181015183820152602001610689565b838111156106b0576000848401525b50505050565b6002810460018216806106ca57607f821691505b602082108114156106eb57634e487b7160e01b600052602260045260246000fd5b50919050565b634e487b7160e01b600052604160045260246000fdfea2646970667358221220b202b5755c2fbc52087888f1ff844ec92a2c33fe9debcacb5a2ca9f5097b89c664736f6c63430008000033",
  "immutableReferences": {},
  "source": "pragma solidity ^0.8.0;\n\ninterface IERC20 {\n    function transfer(address recipient, uint256 amount) external returns (bool);\n    function transferFrom(address sender, address recipient, uint256 amount) external returns (bool);\n}\n\ncontract HTLC {\n    uint public startTime;\n    uint public lockTime = 10000 seconds;\n    // The Hash calc util tool: http://emn178.github.io/online-tools/keccak_256.html\n    string public secret; // colorfulMyLife \n    bytes32 public hash = 0x6980c7da04154324dbf91e0c6f4d993a1db27786cdaf94cca88138aa640bbf9f;\n    address public recipient;\n    address public owner;\n    uint public amount;\n    IERC20 public token;\n    \n    constructor(address _recipient, address _token, uint _amount) {\n        recipient = _recipient;\n        owner = msg.sender;\n        amount = _amount;\n        token = IERC20(_token);\n    }\n\n    function fund() external {\n        startTime = block.timestamp;\n        token.transferFrom(msg.sender, address(this), amount);\n    }\n\n    function withdraw(string memory _secret) external {\n        // TODO: Study keccak256 and abi package\n        require(keccak256(abi.encodePacked(_secret)) == hash, \"Wrong secret\");\n        secret = _secret;\n        token.transfer(recipient, amount);\n    }\n\n    function refund() external {\n        require(block.timestamp > startTime + lockTime, \"Not reach the lock time\");\n        token.transfer(owner, amount);\n    }\n}",
  "sourcePath": "/Users/macbookpro4eric/Projects/blockchain/project8_BSCBEP20/contracts/HTLC.sol",
  "compiler": {
    "name": "solc",
    "version": "0.8.0+commit.c7dfd78e.Emscripten.clang"
  },
  "schemaVersion": "3.3.4",
  "updatedAt": "2021-05-03T08:26:47.359Z",
  "networkType": "ethereum",
  "devdoc": {
    "kind": "dev",
    "methods": {},
    "version": 1
  },
  "userdoc": {
    "kind": "user",
    "methods": {},
    "version": 1
  }
}